{
  "_format": "hh-sol-artifact-1",
  "contractName": "BookOrBotTokenCollection",
  "sourceName": "contracts/TokenCollection.sol",
  "abi": [
    {
      "inputs": [],
      "stateMutability": "nonpayable",
      "type": "constructor"
    },
    {
      "anonymous": false,
      "inputs": [
        {
          "indexed": true,
          "internalType": "address",
          "name": "account",
          "type": "address"
        },
        {
          "indexed": true,
          "internalType": "address",
          "name": "operator",
          "type": "address"
        },
        {
          "indexed": false,
          "internalType": "bool",
          "name": "approved",
          "type": "bool"
        }
      ],
      "name": "ApprovalForAll",
      "type": "event"
    },
    {
      "anonymous": false,
      "inputs": [
        {
          "indexed": true,
          "internalType": "address",
          "name": "previousOwner",
          "type": "address"
        },
        {
          "indexed": true,
          "internalType": "address",
          "name": "newOwner",
          "type": "address"
        }
      ],
      "name": "OwnershipTransferred",
      "type": "event"
    },
    {
      "anonymous": false,
      "inputs": [
        {
          "indexed": true,
          "internalType": "address",
          "name": "operator",
          "type": "address"
        },
        {
          "indexed": true,
          "internalType": "address",
          "name": "from",
          "type": "address"
        },
        {
          "indexed": true,
          "internalType": "address",
          "name": "to",
          "type": "address"
        },
        {
          "indexed": false,
          "internalType": "uint256[]",
          "name": "ids",
          "type": "uint256[]"
        },
        {
          "indexed": false,
          "internalType": "uint256[]",
          "name": "values",
          "type": "uint256[]"
        }
      ],
      "name": "TransferBatch",
      "type": "event"
    },
    {
      "anonymous": false,
      "inputs": [
        {
          "indexed": true,
          "internalType": "address",
          "name": "operator",
          "type": "address"
        },
        {
          "indexed": true,
          "internalType": "address",
          "name": "from",
          "type": "address"
        },
        {
          "indexed": true,
          "internalType": "address",
          "name": "to",
          "type": "address"
        },
        {
          "indexed": false,
          "internalType": "uint256",
          "name": "id",
          "type": "uint256"
        },
        {
          "indexed": false,
          "internalType": "uint256",
          "name": "value",
          "type": "uint256"
        }
      ],
      "name": "TransferSingle",
      "type": "event"
    },
    {
      "anonymous": false,
      "inputs": [
        {
          "indexed": false,
          "internalType": "string",
          "name": "value",
          "type": "string"
        },
        {
          "indexed": true,
          "internalType": "uint256",
          "name": "id",
          "type": "uint256"
        }
      ],
      "name": "URI",
      "type": "event"
    },
    {
      "stateMutability": "payable",
      "type": "fallback"
    },
    {
      "inputs": [
        {
          "internalType": "address",
          "name": "account",
          "type": "address"
        },
        {
          "internalType": "uint256",
          "name": "id",
          "type": "uint256"
        }
      ],
      "name": "balanceOf",
      "outputs": [
        {
          "internalType": "uint256",
          "name": "",
          "type": "uint256"
        }
      ],
      "stateMutability": "view",
      "type": "function"
    },
    {
      "inputs": [
        {
          "internalType": "address[]",
          "name": "accounts",
          "type": "address[]"
        },
        {
          "internalType": "uint256[]",
          "name": "ids",
          "type": "uint256[]"
        }
      ],
      "name": "balanceOfBatch",
      "outputs": [
        {
          "internalType": "uint256[]",
          "name": "",
          "type": "uint256[]"
        }
      ],
      "stateMutability": "view",
      "type": "function"
    },
    {
      "inputs": [
        {
          "internalType": "address",
          "name": "from",
          "type": "address"
        },
        {
          "internalType": "uint256",
          "name": "tokenId",
          "type": "uint256"
        },
        {
          "internalType": "uint256",
          "name": "amount",
          "type": "uint256"
        }
      ],
      "name": "burn",
      "outputs": [],
      "stateMutability": "nonpayable",
      "type": "function"
    },
    {
      "inputs": [
        {
          "internalType": "address",
          "name": "account",
          "type": "address"
        },
        {
          "internalType": "address",
          "name": "operator",
          "type": "address"
        }
      ],
      "name": "isApprovedForAll",
      "outputs": [
        {
          "internalType": "bool",
          "name": "",
          "type": "bool"
        }
      ],
      "stateMutability": "view",
      "type": "function"
    },
    {
      "inputs": [
        {
          "internalType": "address",
          "name": "to",
          "type": "address"
        },
        {
          "internalType": "uint256",
          "name": "amount",
          "type": "uint256"
        },
        {
          "internalType": "bytes",
          "name": "data",
          "type": "bytes"
        }
      ],
      "name": "mint",
      "outputs": [],
      "stateMutability": "payable",
      "type": "function"
    },
    {
      "inputs": [],
      "name": "owner",
      "outputs": [
        {
          "internalType": "address",
          "name": "",
          "type": "address"
        }
      ],
      "stateMutability": "view",
      "type": "function"
    },
    {
      "inputs": [],
      "name": "renounceOwnership",
      "outputs": [],
      "stateMutability": "nonpayable",
      "type": "function"
    },
    {
      "inputs": [
        {
          "internalType": "address",
          "name": "from",
          "type": "address"
        },
        {
          "internalType": "address",
          "name": "to",
          "type": "address"
        },
        {
          "internalType": "uint256[]",
          "name": "ids",
          "type": "uint256[]"
        },
        {
          "internalType": "uint256[]",
          "name": "amounts",
          "type": "uint256[]"
        },
        {
          "internalType": "bytes",
          "name": "data",
          "type": "bytes"
        }
      ],
      "name": "safeBatchTransferFrom",
      "outputs": [],
      "stateMutability": "nonpayable",
      "type": "function"
    },
    {
      "inputs": [
        {
          "internalType": "address",
          "name": "from",
          "type": "address"
        },
        {
          "internalType": "address",
          "name": "to",
          "type": "address"
        },
        {
          "internalType": "uint256",
          "name": "id",
          "type": "uint256"
        },
        {
          "internalType": "uint256",
          "name": "amount",
          "type": "uint256"
        },
        {
          "internalType": "bytes",
          "name": "data",
          "type": "bytes"
        }
      ],
      "name": "safeTransferFrom",
      "outputs": [],
      "stateMutability": "nonpayable",
      "type": "function"
    },
    {
      "inputs": [
        {
          "internalType": "address",
          "name": "operator",
          "type": "address"
        },
        {
          "internalType": "bool",
          "name": "approved",
          "type": "bool"
        }
      ],
      "name": "setApprovalForAll",
      "outputs": [],
      "stateMutability": "nonpayable",
      "type": "function"
    },
    {
      "inputs": [
        {
          "internalType": "uint256",
          "name": "newPrice",
          "type": "uint256"
        }
      ],
      "name": "setTokenPrice",
      "outputs": [],
      "stateMutability": "nonpayable",
      "type": "function"
    },
    {
      "inputs": [
        {
          "internalType": "bytes4",
          "name": "interfaceId",
          "type": "bytes4"
        }
      ],
      "name": "supportsInterface",
      "outputs": [
        {
          "internalType": "bool",
          "name": "",
          "type": "bool"
        }
      ],
      "stateMutability": "view",
      "type": "function"
    },
    {
      "inputs": [],
      "name": "tokenPrice",
      "outputs": [
        {
          "internalType": "uint256",
          "name": "",
          "type": "uint256"
        }
      ],
      "stateMutability": "view",
      "type": "function"
    },
    {
      "inputs": [
        {
          "internalType": "address",
          "name": "from",
          "type": "address"
        },
        {
          "internalType": "address",
          "name": "to",
          "type": "address"
        },
        {
          "internalType": "uint256",
          "name": "tokenId",
          "type": "uint256"
        },
        {
          "internalType": "uint256",
          "name": "amount",
          "type": "uint256"
        },
        {
          "internalType": "bytes",
          "name": "data",
          "type": "bytes"
        }
      ],
      "name": "transfer",
      "outputs": [],
      "stateMutability": "nonpayable",
      "type": "function"
    },
    {
      "inputs": [
        {
          "internalType": "address",
          "name": "newOwner",
          "type": "address"
        }
      ],
      "name": "transferOwnership",
      "outputs": [],
      "stateMutability": "nonpayable",
      "type": "function"
    },
    {
      "inputs": [
        {
          "internalType": "uint256",
          "name": "tokenId",
          "type": "uint256"
        }
      ],
      "name": "uri",
      "outputs": [
        {
          "internalType": "string",
          "name": "",
          "type": "string"
        }
      ],
      "stateMutability": "view",
      "type": "function"
    },
    {
      "inputs": [],
      "name": "withdraw",
      "outputs": [],
      "stateMutability": "nonpayable",
      "type": "function"
    },
    {
      "stateMutability": "payable",
      "type": "receive"
    }
  ],
  "bytecode": "0x60806040526040518060800160405280604381526020016200430e60439139600590816200002e91906200047d565b50662386f26fc1000060065560006007553480156200004c57600080fd5b50600580546200005c906200026c565b80601f01602080910402602001604051908101604052809291908181526020018280546200008a906200026c565b8015620000db5780601f10620000af57610100808354040283529160200191620000db565b820191906000526020600020905b815481529060010190602001808311620000bd57829003601f168201915b5050505050620000f1816200012060201b60201c565b5062000112620001066200013560201b60201c565b6200013d60201b60201c565b600160048190555062000564565b80600290816200013191906200047d565b5050565b600033905090565b6000600360009054906101000a900473ffffffffffffffffffffffffffffffffffffffff16905081600360006101000a81548173ffffffffffffffffffffffffffffffffffffffff021916908373ffffffffffffffffffffffffffffffffffffffff1602179055508173ffffffffffffffffffffffffffffffffffffffff168173ffffffffffffffffffffffffffffffffffffffff167f8be0079c531659141344cd1fd0a4f28419497f9722a3daafe3b4186f6b6457e060405160405180910390a35050565b600081519050919050565b7f4e487b7100000000000000000000000000000000000000000000000000000000600052604160045260246000fd5b7f4e487b7100000000000000000000000000000000000000000000000000000000600052602260045260246000fd5b600060028204905060018216806200028557607f821691505b6020821081036200029b576200029a6200023d565b5b50919050565b60008190508160005260206000209050919050565b60006020601f8301049050919050565b600082821b905092915050565b600060088302620003057fffffffffffffffffffffffffffffffffffffffffffffffffffffffffffffffff82620002c6565b620003118683620002c6565b95508019841693508086168417925050509392505050565b6000819050919050565b6000819050919050565b60006200035e62000358620003528462000329565b62000333565b62000329565b9050919050565b6000819050919050565b6200037a836200033d565b62000392620003898262000365565b848454620002d3565b825550505050565b600090565b620003a96200039a565b620003b68184846200036f565b505050565b5b81811015620003de57620003d26000826200039f565b600181019050620003bc565b5050565b601f8211156200042d57620003f781620002a1565b6200040284620002b6565b8101602085101562000412578190505b6200042a6200042185620002b6565b830182620003bb565b50505b505050565b600082821c905092915050565b6000620004526000198460080262000432565b1980831691505092915050565b60006200046d83836200043f565b9150826002028217905092915050565b620004888262000203565b67ffffffffffffffff811115620004a457620004a36200020e565b5b620004b082546200026c565b620004bd828285620003e2565b600060209050601f831160018114620004f55760008415620004e0578287015190505b620004ec85826200045f565b8655506200055c565b601f1984166200050586620002a1565b60005b828110156200052f5784890151825560018201915060208501945060208101905062000508565b868310156200054f57848901516200054b601f8916826200043f565b8355505b6001600288020188555050505b505050505050565b613d9a80620005746000396000f3fe6080604052600436106101015760003560e01c8063715018a611610095578063a22cb46511610064578063a22cb46514610319578063e985e9c514610342578063f242432a1461037f578063f2fde38b146103a8578063f5298aca146103d157610108565b8063715018a6146102905780637ff9b596146102a75780638da5cb5b146102d257806394d008ef146102fd57610108565b80632eb2c2d6116100d15780632eb2c2d6146101ea5780633ccfd60b146102135780634e1273f41461022a5780636a61e5fc1461026757610108565b8062fdd58e1461010a57806301ffc9a7146101475780630e89341c14610184578063127217d6146101c157610108565b3661010857005b005b34801561011657600080fd5b50610131600480360381019061012c91906121aa565b6103fa565b60405161013e91906121f9565b60405180910390f35b34801561015357600080fd5b5061016e6004803603810190610169919061226c565b6104c2565b60405161017b91906122b4565b60405180910390f35b34801561019057600080fd5b506101ab60048036038101906101a691906122cf565b6105a4565b6040516101b8919061238c565b60405180910390f35b3480156101cd57600080fd5b506101e860048036038101906101e391906124e3565b61068d565b005b3480156101f657600080fd5b50610211600480360381019061020c9190612642565b6106a1565b005b34801561021f57600080fd5b50610228610742565b005b34801561023657600080fd5b50610251600480360381019061024c91906127d4565b6107aa565b60405161025e919061290a565b60405180910390f35b34801561027357600080fd5b5061028e600480360381019061028991906122cf565b6108bd565b005b34801561029c57600080fd5b506102a5610912565b005b3480156102b357600080fd5b506102bc610926565b6040516102c991906121f9565b60405180910390f35b3480156102de57600080fd5b506102e761092c565b6040516102f4919061293b565b60405180910390f35b61031760048036038101906103129190612956565b610956565b005b34801561032557600080fd5b50610340600480360381019061033b91906129f1565b610a9f565b005b34801561034e57600080fd5b5061036960048036038101906103649190612a31565b610ab5565b60405161037691906122b4565b60405180910390f35b34801561038b57600080fd5b506103a660048036038101906103a191906124e3565b610b49565b005b3480156103b457600080fd5b506103cf60048036038101906103ca9190612a71565b610bea565b005b3480156103dd57600080fd5b506103f860048036038101906103f39190612a9e565b610c6d565b005b60008073ffffffffffffffffffffffffffffffffffffffff168373ffffffffffffffffffffffffffffffffffffffff160361046a576040517f08c379a000000000000000000000000000000000000000000000000000000000815260040161046190612b63565b60405180910390fd5b60008083815260200190815260200160002060008473ffffffffffffffffffffffffffffffffffffffff1673ffffffffffffffffffffffffffffffffffffffff16815260200190815260200160002054905092915050565b60007fd9b67a26000000000000000000000000000000000000000000000000000000007bffffffffffffffffffffffffffffffffffffffffffffffffffffffff1916827bffffffffffffffffffffffffffffffffffffffffffffffffffffffff1916148061058d57507f0e89341c000000000000000000000000000000000000000000000000000000007bffffffffffffffffffffffffffffffffffffffffffffffffffffffff1916827bffffffffffffffffffffffffffffffffffffffffffffffffffffffff1916145b8061059d575061059c82610d0a565b5b9050919050565b606060006008600084815260200190815260200160002080546105c690612bb2565b80601f01602080910402602001604051908101604052809291908181526020018280546105f290612bb2565b801561063f5780601f106106145761010080835404028352916020019161063f565b820191906000526020600020905b81548152906001019060200180831161062257829003601f168201915b505050505090506000815111156106595780915050610688565b600561066484610d74565b604051602001610675929190612d03565b6040516020818303038152906040529150505b919050565b61069a8585858585610b49565b5050505050565b6106a9610e42565b73ffffffffffffffffffffffffffffffffffffffff168573ffffffffffffffffffffffffffffffffffffffff1614806106ef57506106ee856106e9610e42565b610ab5565b5b61072e576040517f08c379a000000000000000000000000000000000000000000000000000000000815260040161072590612da4565b60405180910390fd5b61073b8585858585610e4a565b5050505050565b61074a611165565b6107526111e3565b61075a61092c565b73ffffffffffffffffffffffffffffffffffffffff166108fc479081150290604051600060405180830381858888f1935050505015801561079f573d6000803e3d6000fd5b506107a8611232565b565b606081518351146107f0576040517f08c379a00000000000000000000000000000000000000000000000000000000081526004016107e790612e36565b60405180910390fd5b6000835167ffffffffffffffff81111561080d5761080c6123b8565b5b60405190808252806020026020018201604052801561083b5781602001602082028036833780820191505090505b50905060005b84518110156108b2576108888582815181106108605761085f612e56565b5b602002602001015185838151811061087b5761087a612e56565b5b60200260200101516103fa565b82828151811061089b5761089a612e56565b5b602002602001018181525050806001019050610841565b508091505092915050565b6108c5611165565b60008111610908576040517f08c379a00000000000000000000000000000000000000000000000000000000081526004016108ff90612ef7565b60405180910390fd5b8060068190555050565b61091a611165565b610924600061123c565b565b60065481565b6000600360009054906101000a900473ffffffffffffffffffffffffffffffffffffffff16905090565b816006546109649190612f46565b3410156109a6576040517f08c379a000000000000000000000000000000000000000000000000000000000815260040161099d90612fd4565b60405180910390fd5b600082116109e9576040517f08c379a00000000000000000000000000000000000000000000000000000000081526004016109e090613066565b60405180910390fd5b60006109f3611302565b90506109fd611318565b610a0984828585611332565b82600654610a179190612f46565b341115610a7e573373ffffffffffffffffffffffffffffffffffffffff166108fc84600654610a469190612f46565b34610a519190613086565b9081150290604051600060405180830381858888f19350505050158015610a7c573d6000803e3d6000fd5b505b600082511115610a99576000829050610a9782826114e2565b505b50505050565b610ab1610aaa610e42565b8383611507565b5050565b6000600160008473ffffffffffffffffffffffffffffffffffffffff1673ffffffffffffffffffffffffffffffffffffffff16815260200190815260200160002060008373ffffffffffffffffffffffffffffffffffffffff1673ffffffffffffffffffffffffffffffffffffffff16815260200190815260200160002060009054906101000a900460ff16905092915050565b610b51610e42565b73ffffffffffffffffffffffffffffffffffffffff168573ffffffffffffffffffffffffffffffffffffffff161480610b975750610b9685610b91610e42565b610ab5565b5b610bd6576040517f08c379a0000000000000000000000000000000000000000000000000000000008152600401610bcd90612da4565b60405180910390fd5b610be38585858585611673565b5050505050565b610bf2611165565b600073ffffffffffffffffffffffffffffffffffffffff168173ffffffffffffffffffffffffffffffffffffffff1603610c61576040517f08c379a0000000000000000000000000000000000000000000000000000000008152600401610c589061312c565b60405180910390fd5b610c6a8161123c565b50565b610c75610e42565b73ffffffffffffffffffffffffffffffffffffffff168373ffffffffffffffffffffffffffffffffffffffff161480610cbb5750610cba83610cb5610e42565b610ab5565b5b610cfa576040517f08c379a0000000000000000000000000000000000000000000000000000000008152600401610cf1906131be565b60405180910390fd5b610d0583838361190e565b505050565b60007f01ffc9a7000000000000000000000000000000000000000000000000000000007bffffffffffffffffffffffffffffffffffffffffffffffffffffffff1916827bffffffffffffffffffffffffffffffffffffffffffffffffffffffff1916149050919050565b606060006001610d8384611b54565b01905060008167ffffffffffffffff811115610da257610da16123b8565b5b6040519080825280601f01601f191660200182016040528015610dd45781602001600182028036833780820191505090505b509050600082602001820190505b600115610e37578080600190039150507f3031323334353637383961626364656600000000000000000000000000000000600a86061a8153600a8581610e2b57610e2a6131de565b5b04945060008503610de2575b819350505050919050565b600033905090565b8151835114610e8e576040517f08c379a0000000000000000000000000000000000000000000000000000000008152600401610e859061327f565b60405180910390fd5b600073ffffffffffffffffffffffffffffffffffffffff168473ffffffffffffffffffffffffffffffffffffffff1603610efd576040517f08c379a0000000000000000000000000000000000000000000000000000000008152600401610ef490613311565b60405180910390fd5b6000610f07610e42565b9050610f17818787878787611ca7565b60005b84518110156110c2576000858281518110610f3857610f37612e56565b5b602002602001015190506000858381518110610f5757610f56612e56565b5b60200260200101519050600080600084815260200190815260200160002060008b73ffffffffffffffffffffffffffffffffffffffff1673ffffffffffffffffffffffffffffffffffffffff16815260200190815260200160002054905081811015610ff8576040517f08c379a0000000000000000000000000000000000000000000000000000000008152600401610fef906133a3565b60405180910390fd5b81810360008085815260200190815260200160002060008c73ffffffffffffffffffffffffffffffffffffffff1673ffffffffffffffffffffffffffffffffffffffff168152602001908152602001600020819055508160008085815260200190815260200160002060008b73ffffffffffffffffffffffffffffffffffffffff1673ffffffffffffffffffffffffffffffffffffffff16815260200190815260200160002060008282546110ad91906133c3565b92505081905550505050806001019050610f1a565b508473ffffffffffffffffffffffffffffffffffffffff168673ffffffffffffffffffffffffffffffffffffffff168273ffffffffffffffffffffffffffffffffffffffff167f4a39dc06d4c0dbc64b70af90fd698a233a518aa5d07e595d983b8c0526c8f7fb87876040516111399291906133f7565b60405180910390a461114f818787878787611caf565b61115d818787878787611cb7565b505050505050565b61116d610e42565b73ffffffffffffffffffffffffffffffffffffffff1661118b61092c565b73ffffffffffffffffffffffffffffffffffffffff16146111e1576040517f08c379a00000000000000000000000000000000000000000000000000000000081526004016111d89061347a565b60405180910390fd5b565b600260045403611228576040517f08c379a000000000000000000000000000000000000000000000000000000000815260040161121f906134e6565b60405180910390fd5b6002600481905550565b6001600481905550565b6000600360009054906101000a900473ffffffffffffffffffffffffffffffffffffffff16905081600360006101000a81548173ffffffffffffffffffffffffffffffffffffffff021916908373ffffffffffffffffffffffffffffffffffffffff1602179055508173ffffffffffffffffffffffffffffffffffffffff168173ffffffffffffffffffffffffffffffffffffffff167f8be0079c531659141344cd1fd0a4f28419497f9722a3daafe3b4186f6b6457e060405160405180910390a35050565b6000600160075461131391906133c3565b905090565b6007600081548092919061132b90613506565b9190505550565b600073ffffffffffffffffffffffffffffffffffffffff168473ffffffffffffffffffffffffffffffffffffffff16036113a1576040517f08c379a0000000000000000000000000000000000000000000000000000000008152600401611398906135c0565b60405180910390fd5b60006113ab610e42565b905060006113b885611e8e565b905060006113c585611e8e565b90506113d683600089858589611ca7565b8460008088815260200190815260200160002060008973ffffffffffffffffffffffffffffffffffffffff1673ffffffffffffffffffffffffffffffffffffffff168152602001908152602001600020600082825461143591906133c3565b925050819055508673ffffffffffffffffffffffffffffffffffffffff16600073ffffffffffffffffffffffffffffffffffffffff168473ffffffffffffffffffffffffffffffffffffffff167fc3d58168c5ae7397731d063d5bbf3d657854427343f4c083240f7aacaa2d0f6289896040516114b39291906135e0565b60405180910390a46114ca83600089858589611caf565b6114d983600089898989611f08565b50505050505050565b8060086000848152602001908152602001600020908161150291906137a0565b505050565b8173ffffffffffffffffffffffffffffffffffffffff168373ffffffffffffffffffffffffffffffffffffffff1603611575576040517f08c379a000000000000000000000000000000000000000000000000000000000815260040161156c906138e4565b60405180910390fd5b80600160008573ffffffffffffffffffffffffffffffffffffffff1673ffffffffffffffffffffffffffffffffffffffff16815260200190815260200160002060008473ffffffffffffffffffffffffffffffffffffffff1673ffffffffffffffffffffffffffffffffffffffff16815260200190815260200160002060006101000a81548160ff0219169083151502179055508173ffffffffffffffffffffffffffffffffffffffff168373ffffffffffffffffffffffffffffffffffffffff167f17307eab39ab6107e8899845ad3d59bd9653f200f220920489ca2b5937696c318360405161166691906122b4565b60405180910390a3505050565b600073ffffffffffffffffffffffffffffffffffffffff168473ffffffffffffffffffffffffffffffffffffffff16036116e2576040517f08c379a00000000000000000000000000000000000000000000000000000000081526004016116d990613311565b60405180910390fd5b60006116ec610e42565b905060006116f985611e8e565b9050600061170685611e8e565b9050611716838989858589611ca7565b600080600088815260200190815260200160002060008a73ffffffffffffffffffffffffffffffffffffffff1673ffffffffffffffffffffffffffffffffffffffff168152602001908152602001600020549050858110156117ad576040517f08c379a00000000000000000000000000000000000000000000000000000000081526004016117a4906133a3565b60405180910390fd5b85810360008089815260200190815260200160002060008b73ffffffffffffffffffffffffffffffffffffffff1673ffffffffffffffffffffffffffffffffffffffff168152602001908152602001600020819055508560008089815260200190815260200160002060008a73ffffffffffffffffffffffffffffffffffffffff1673ffffffffffffffffffffffffffffffffffffffff168152602001908152602001600020600082825461186291906133c3565b925050819055508773ffffffffffffffffffffffffffffffffffffffff168973ffffffffffffffffffffffffffffffffffffffff168573ffffffffffffffffffffffffffffffffffffffff167fc3d58168c5ae7397731d063d5bbf3d657854427343f4c083240f7aacaa2d0f628a8a6040516118df9291906135e0565b60405180910390a46118f5848a8a86868a611caf565b611903848a8a8a8a8a611f08565b505050505050505050565b600073ffffffffffffffffffffffffffffffffffffffff168373ffffffffffffffffffffffffffffffffffffffff160361197d576040517f08c379a000000000000000000000000000000000000000000000000000000000815260040161197490613976565b60405180910390fd5b6000611987610e42565b9050600061199484611e8e565b905060006119a184611e8e565b90506119c183876000858560405180602001604052806000815250611ca7565b600080600087815260200190815260200160002060008873ffffffffffffffffffffffffffffffffffffffff1673ffffffffffffffffffffffffffffffffffffffff16815260200190815260200160002054905084811015611a58576040517f08c379a0000000000000000000000000000000000000000000000000000000008152600401611a4f90613a08565b60405180910390fd5b84810360008088815260200190815260200160002060008973ffffffffffffffffffffffffffffffffffffffff1673ffffffffffffffffffffffffffffffffffffffff16815260200190815260200160002081905550600073ffffffffffffffffffffffffffffffffffffffff168773ffffffffffffffffffffffffffffffffffffffff168573ffffffffffffffffffffffffffffffffffffffff167fc3d58168c5ae7397731d063d5bbf3d657854427343f4c083240f7aacaa2d0f628989604051611b259291906135e0565b60405180910390a4611b4b84886000868660405180602001604052806000815250611caf565b50505050505050565b600080600090507a184f03e93ff9f4daa797ed6e38ed64bf6a1f0100000000000000008310611bb2577a184f03e93ff9f4daa797ed6e38ed64bf6a1f0100000000000000008381611ba857611ba76131de565b5b0492506040810190505b6d04ee2d6d415b85acef81000000008310611bef576d04ee2d6d415b85acef81000000008381611be557611be46131de565b5b0492506020810190505b662386f26fc100008310611c1e57662386f26fc100008381611c1457611c136131de565b5b0492506010810190505b6305f5e1008310611c47576305f5e1008381611c3d57611c3c6131de565b5b0492506008810190505b6127108310611c6c576127108381611c6257611c616131de565b5b0492506004810190505b60648310611c8f5760648381611c8557611c846131de565b5b0492506002810190505b600a8310611c9e576001810190505b80915050919050565b505050505050565b505050505050565b611cd68473ffffffffffffffffffffffffffffffffffffffff166120df565b15611e86578373ffffffffffffffffffffffffffffffffffffffff1663bc197c8187878686866040518663ffffffff1660e01b8152600401611d1c959493929190613a7d565b6020604051808303816000875af1925050508015611d5857506040513d601f19601f82011682018060405250810190611d559190613afa565b60015b611dfd57611d64613b34565b806308c379a003611dc05750611d78613b56565b80611d835750611dc2565b806040517f08c379a0000000000000000000000000000000000000000000000000000000008152600401611db7919061238c565b60405180910390fd5b505b6040517f08c379a0000000000000000000000000000000000000000000000000000000008152600401611df490613c58565b60405180910390fd5b63bc197c8160e01b7bffffffffffffffffffffffffffffffffffffffffffffffffffffffff1916817bffffffffffffffffffffffffffffffffffffffffffffffffffffffff191614611e84576040517f08c379a0000000000000000000000000000000000000000000000000000000008152600401611e7b90613cea565b60405180910390fd5b505b505050505050565b60606000600167ffffffffffffffff811115611ead57611eac6123b8565b5b604051908082528060200260200182016040528015611edb5781602001602082028036833780820191505090505b5090508281600081518110611ef357611ef2612e56565b5b60200260200101818152505080915050919050565b611f278473ffffffffffffffffffffffffffffffffffffffff166120df565b156120d7578373ffffffffffffffffffffffffffffffffffffffff1663f23a6e6187878686866040518663ffffffff1660e01b8152600401611f6d959493929190613d0a565b6020604051808303816000875af1925050508015611fa957506040513d601f19601f82011682018060405250810190611fa69190613afa565b60015b61204e57611fb5613b34565b806308c379a0036120115750611fc9613b56565b80611fd45750612013565b806040517f08c379a0000000000000000000000000000000000000000000000000000000008152600401612008919061238c565b60405180910390fd5b505b6040517f08c379a000000000000000000000000000000000000000000000000000000000815260040161204590613c58565b60405180910390fd5b63f23a6e6160e01b7bffffffffffffffffffffffffffffffffffffffffffffffffffffffff1916817bffffffffffffffffffffffffffffffffffffffffffffffffffffffff1916146120d5576040517f08c379a00000000000000000000000000000000000000000000000000000000081526004016120cc90613cea565b60405180910390fd5b505b505050505050565b6000808273ffffffffffffffffffffffffffffffffffffffff163b119050919050565b6000604051905090565b600080fd5b600080fd5b600073ffffffffffffffffffffffffffffffffffffffff82169050919050565b600061214182612116565b9050919050565b61215181612136565b811461215c57600080fd5b50565b60008135905061216e81612148565b92915050565b6000819050919050565b61218781612174565b811461219257600080fd5b50565b6000813590506121a48161217e565b92915050565b600080604083850312156121c1576121c061210c565b5b60006121cf8582860161215f565b92505060206121e085828601612195565b9150509250929050565b6121f381612174565b82525050565b600060208201905061220e60008301846121ea565b92915050565b60007fffffffff0000000000000000000000000000000000000000000000000000000082169050919050565b61224981612214565b811461225457600080fd5b50565b60008135905061226681612240565b92915050565b6000602082840312156122825761228161210c565b5b600061229084828501612257565b91505092915050565b60008115159050919050565b6122ae81612299565b82525050565b60006020820190506122c960008301846122a5565b92915050565b6000602082840312156122e5576122e461210c565b5b60006122f384828501612195565b91505092915050565b600081519050919050565b600082825260208201905092915050565b60005b8381101561233657808201518184015260208101905061231b565b60008484015250505050565b6000601f19601f8301169050919050565b600061235e826122fc565b6123688185612307565b9350612378818560208601612318565b61238181612342565b840191505092915050565b600060208201905081810360008301526123a68184612353565b905092915050565b600080fd5b600080fd5b7f4e487b7100000000000000000000000000000000000000000000000000000000600052604160045260246000fd5b6123f082612342565b810181811067ffffffffffffffff8211171561240f5761240e6123b8565b5b80604052505050565b6000612422612102565b905061242e82826123e7565b919050565b600067ffffffffffffffff82111561244e5761244d6123b8565b5b61245782612342565b9050602081019050919050565b82818337600083830152505050565b600061248661248184612433565b612418565b9050828152602081018484840111156124a2576124a16123b3565b5b6124ad848285612464565b509392505050565b600082601f8301126124ca576124c96123ae565b5b81356124da848260208601612473565b91505092915050565b600080600080600060a086880312156124ff576124fe61210c565b5b600061250d8882890161215f565b955050602061251e8882890161215f565b945050604061252f88828901612195565b935050606061254088828901612195565b925050608086013567ffffffffffffffff81111561256157612560612111565b5b61256d888289016124b5565b9150509295509295909350565b600067ffffffffffffffff821115612595576125946123b8565b5b602082029050602081019050919050565b600080fd5b60006125be6125b98461257a565b612418565b905080838252602082019050602084028301858111156125e1576125e06125a6565b5b835b8181101561260a57806125f68882612195565b8452602084019350506020810190506125e3565b5050509392505050565b600082601f830112612629576126286123ae565b5b81356126398482602086016125ab565b91505092915050565b600080600080600060a0868803121561265e5761265d61210c565b5b600061266c8882890161215f565b955050602061267d8882890161215f565b945050604086013567ffffffffffffffff81111561269e5761269d612111565b5b6126aa88828901612614565b935050606086013567ffffffffffffffff8111156126cb576126ca612111565b5b6126d788828901612614565b925050608086013567ffffffffffffffff8111156126f8576126f7612111565b5b612704888289016124b5565b9150509295509295909350565b600067ffffffffffffffff82111561272c5761272b6123b8565b5b602082029050602081019050919050565b600061275061274b84612711565b612418565b90508083825260208201905060208402830185811115612773576127726125a6565b5b835b8181101561279c5780612788888261215f565b845260208401935050602081019050612775565b5050509392505050565b600082601f8301126127bb576127ba6123ae565b5b81356127cb84826020860161273d565b91505092915050565b600080604083850312156127eb576127ea61210c565b5b600083013567ffffffffffffffff81111561280957612808612111565b5b612815858286016127a6565b925050602083013567ffffffffffffffff81111561283657612835612111565b5b61284285828601612614565b9150509250929050565b600081519050919050565b600082825260208201905092915050565b6000819050602082019050919050565b61288181612174565b82525050565b60006128938383612878565b60208301905092915050565b6000602082019050919050565b60006128b78261284c565b6128c18185612857565b93506128cc83612868565b8060005b838110156128fd5781516128e48882612887565b97506128ef8361289f565b9250506001810190506128d0565b5085935050505092915050565b6000602082019050818103600083015261292481846128ac565b905092915050565b61293581612136565b82525050565b6000602082019050612950600083018461292c565b92915050565b60008060006060848603121561296f5761296e61210c565b5b600061297d8682870161215f565b935050602061298e86828701612195565b925050604084013567ffffffffffffffff8111156129af576129ae612111565b5b6129bb868287016124b5565b9150509250925092565b6129ce81612299565b81146129d957600080fd5b50565b6000813590506129eb816129c5565b92915050565b60008060408385031215612a0857612a0761210c565b5b6000612a168582860161215f565b9250506020612a27858286016129dc565b9150509250929050565b60008060408385031215612a4857612a4761210c565b5b6000612a568582860161215f565b9250506020612a678582860161215f565b9150509250929050565b600060208284031215612a8757612a8661210c565b5b6000612a958482850161215f565b91505092915050565b600080600060608486031215612ab757612ab661210c565b5b6000612ac58682870161215f565b9350506020612ad686828701612195565b9250506040612ae786828701612195565b9150509250925092565b7f455243313135353a2061646472657373207a65726f206973206e6f742061207660008201527f616c6964206f776e657200000000000000000000000000000000000000000000602082015250565b6000612b4d602a83612307565b9150612b5882612af1565b604082019050919050565b60006020820190508181036000830152612b7c81612b40565b9050919050565b7f4e487b7100000000000000000000000000000000000000000000000000000000600052602260045260246000fd5b60006002820490506001821680612bca57607f821691505b602082108103612bdd57612bdc612b83565b5b50919050565b600081905092915050565b60008190508160005260206000209050919050565b60008154612c1081612bb2565b612c1a8186612be3565b94506001821660008114612c355760018114612c4a57612c7d565b60ff1983168652811515820286019350612c7d565b612c5385612bee565b60005b83811015612c7557815481890152600182019150602081019050612c56565b838801955050505b50505092915050565b6000612c91826122fc565b612c9b8185612be3565b9350612cab818560208601612318565b80840191505092915050565b7f2e6a736f6e000000000000000000000000000000000000000000000000000000600082015250565b6000612ced600583612be3565b9150612cf882612cb7565b600582019050919050565b6000612d0f8285612c03565b9150612d1b8284612c86565b9150612d2682612ce0565b91508190509392505050565b7f455243313135353a2063616c6c6572206973206e6f7420746f6b656e206f776e60008201527f6572206f7220617070726f766564000000000000000000000000000000000000602082015250565b6000612d8e602e83612307565b9150612d9982612d32565b604082019050919050565b60006020820190508181036000830152612dbd81612d81565b9050919050565b7f455243313135353a206163636f756e747320616e6420696473206c656e67746860008201527f206d69736d617463680000000000000000000000000000000000000000000000602082015250565b6000612e20602983612307565b9150612e2b82612dc4565b604082019050919050565b60006020820190508181036000830152612e4f81612e13565b9050919050565b7f4e487b7100000000000000000000000000000000000000000000000000000000600052603260045260246000fd5b7f546f6b656e207072696365206d7573742062652067726561746572207468616e60008201527f207a65726f000000000000000000000000000000000000000000000000000000602082015250565b6000612ee1602583612307565b9150612eec82612e85565b604082019050919050565b60006020820190508181036000830152612f1081612ed4565b9050919050565b7f4e487b7100000000000000000000000000000000000000000000000000000000600052601160045260246000fd5b6000612f5182612174565b9150612f5c83612174565b9250828202612f6a81612174565b91508282048414831517612f8157612f80612f17565b5b5092915050565b7f496e73756666696369656e74207061796d656e74000000000000000000000000600082015250565b6000612fbe601483612307565b9150612fc982612f88565b602082019050919050565b60006020820190508181036000830152612fed81612fb1565b9050919050565b7f4d696e7420616d6f756e74206d7573742062652067726561746572207468616e60008201527f207a65726f000000000000000000000000000000000000000000000000000000602082015250565b6000613050602583612307565b915061305b82612ff4565b604082019050919050565b6000602082019050818103600083015261307f81613043565b9050919050565b600061309182612174565b915061309c83612174565b92508282039050818111156130b4576130b3612f17565b5b92915050565b7f4f776e61626c653a206e6577206f776e657220697320746865207a65726f206160008201527f6464726573730000000000000000000000000000000000000000000000000000602082015250565b6000613116602683612307565b9150613121826130ba565b604082019050919050565b6000602082019050818103600083015261314581613109565b9050919050565b7f455243313135353a2063616c6c6572206973206e6f74206f776e6572206e6f7260008201527f20617070726f7665640000000000000000000000000000000000000000000000602082015250565b60006131a8602983612307565b91506131b38261314c565b604082019050919050565b600060208201905081810360008301526131d78161319b565b9050919050565b7f4e487b7100000000000000000000000000000000000000000000000000000000600052601260045260246000fd5b7f455243313135353a2069647320616e6420616d6f756e7473206c656e6774682060008201527f6d69736d61746368000000000000000000000000000000000000000000000000602082015250565b6000613269602883612307565b91506132748261320d565b604082019050919050565b600060208201905081810360008301526132988161325c565b9050919050565b7f455243313135353a207472616e7366657220746f20746865207a65726f20616460008201527f6472657373000000000000000000000000000000000000000000000000000000602082015250565b60006132fb602583612307565b91506133068261329f565b604082019050919050565b6000602082019050818103600083015261332a816132ee565b9050919050565b7f455243313135353a20696e73756666696369656e742062616c616e636520666f60008201527f72207472616e7366657200000000000000000000000000000000000000000000602082015250565b600061338d602a83612307565b915061339882613331565b604082019050919050565b600060208201905081810360008301526133bc81613380565b9050919050565b60006133ce82612174565b91506133d983612174565b92508282019050808211156133f1576133f0612f17565b5b92915050565b6000604082019050818103600083015261341181856128ac565b9050818103602083015261342581846128ac565b90509392505050565b7f4f776e61626c653a2063616c6c6572206973206e6f7420746865206f776e6572600082015250565b6000613464602083612307565b915061346f8261342e565b602082019050919050565b6000602082019050818103600083015261349381613457565b9050919050565b7f5265656e7472616e637947756172643a207265656e7472616e742063616c6c00600082015250565b60006134d0601f83612307565b91506134db8261349a565b602082019050919050565b600060208201905081810360008301526134ff816134c3565b9050919050565b600061351182612174565b91507fffffffffffffffffffffffffffffffffffffffffffffffffffffffffffffffff820361354357613542612f17565b5b600182019050919050565b7f455243313135353a206d696e7420746f20746865207a65726f2061646472657360008201527f7300000000000000000000000000000000000000000000000000000000000000602082015250565b60006135aa602183612307565b91506135b58261354e565b604082019050919050565b600060208201905081810360008301526135d98161359d565b9050919050565b60006040820190506135f560008301856121ea565b61360260208301846121ea565b9392505050565b60006020601f8301049050919050565b600082821b905092915050565b6000600883026136567fffffffffffffffffffffffffffffffffffffffffffffffffffffffffffffffff82613619565b6136608683613619565b95508019841693508086168417925050509392505050565b6000819050919050565b600061369d61369861369384612174565b613678565b612174565b9050919050565b6000819050919050565b6136b783613682565b6136cb6136c3826136a4565b848454613626565b825550505050565b600090565b6136e06136d3565b6136eb8184846136ae565b505050565b5b8181101561370f576137046000826136d8565b6001810190506136f1565b5050565b601f8211156137545761372581612bee565b61372e84613609565b8101602085101561373d578190505b61375161374985613609565b8301826136f0565b50505b505050565b600082821c905092915050565b600061377760001984600802613759565b1980831691505092915050565b60006137908383613766565b9150826002028217905092915050565b6137a9826122fc565b67ffffffffffffffff8111156137c2576137c16123b8565b5b6137cc8254612bb2565b6137d7828285613713565b600060209050601f83116001811461380a57600084156137f8578287015190505b6138028582613784565b86555061386a565b601f19841661381886612bee565b60005b828110156138405784890151825560018201915060208501945060208101905061381b565b8683101561385d5784890151613859601f891682613766565b8355505b6001600288020188555050505b505050505050565b7f455243313135353a2073657474696e6720617070726f76616c2073746174757360008201527f20666f722073656c660000000000000000000000000000000000000000000000602082015250565b60006138ce602983612307565b91506138d982613872565b604082019050919050565b600060208201905081810360008301526138fd816138c1565b9050919050565b7f455243313135353a206275726e2066726f6d20746865207a65726f206164647260008201527f6573730000000000000000000000000000000000000000000000000000000000602082015250565b6000613960602383612307565b915061396b82613904565b604082019050919050565b6000602082019050818103600083015261398f81613953565b9050919050565b7f455243313135353a206275726e20616d6f756e7420657863656564732062616c60008201527f616e636500000000000000000000000000000000000000000000000000000000602082015250565b60006139f2602483612307565b91506139fd82613996565b604082019050919050565b60006020820190508181036000830152613a21816139e5565b9050919050565b600081519050919050565b600082825260208201905092915050565b6000613a4f82613a28565b613a598185613a33565b9350613a69818560208601612318565b613a7281612342565b840191505092915050565b600060a082019050613a92600083018861292c565b613a9f602083018761292c565b8181036040830152613ab181866128ac565b90508181036060830152613ac581856128ac565b90508181036080830152613ad98184613a44565b90509695505050505050565b600081519050613af481612240565b92915050565b600060208284031215613b1057613b0f61210c565b5b6000613b1e84828501613ae5565b91505092915050565b60008160e01c9050919050565b600060033d1115613b535760046000803e613b50600051613b27565b90505b90565b600060443d10613be357613b68612102565b60043d036004823e80513d602482011167ffffffffffffffff82111715613b90575050613be3565b808201805167ffffffffffffffff811115613bae5750505050613be3565b80602083010160043d038501811115613bcb575050505050613be3565b613bda826020018501866123e7565b82955050505050505b90565b7f455243313135353a207472616e7366657220746f206e6f6e2d4552433131353560008201527f526563656976657220696d706c656d656e746572000000000000000000000000602082015250565b6000613c42603483612307565b9150613c4d82613be6565b604082019050919050565b60006020820190508181036000830152613c7181613c35565b9050919050565b7f455243313135353a204552433131353552656365697665722072656a6563746560008201527f6420746f6b656e73000000000000000000000000000000000000000000000000602082015250565b6000613cd4602883612307565b9150613cdf82613c78565b604082019050919050565b60006020820190508181036000830152613d0381613cc7565b9050919050565b600060a082019050613d1f600083018861292c565b613d2c602083018761292c565b613d3960408301866121ea565b613d4660608301856121ea565b8181036080830152613d588184613a44565b9050969550505050505056fea2646970667358221220bf007ec7444df0ae79f6dcbe89b3fdd844002145cf96f7b344139148b447859f64736f6c6343000818003368747470733a2f2f697066732e696f2f697066732f516d55724771754b7334705173694d53377071726336437353553669376743456457654254756f6176364e67715a",
  "linkReferences": {},
  "deployedLinkReferences": {}
}